{
	"contracts/TaxiRide.sol": {
		"TaxiRide": {
			"abi": [
				{
					"inputs": [
						{
							"internalType": "address",
							"name": "_driver",
							"type": "address"
						},
						{
							"internalType": "uint256",
							"name": "_rideCost",
							"type": "uint256"
						}
					],
					"stateMutability": "nonpayable",
					"type": "constructor"
				},
				{
					"anonymous": false,
					"inputs": [
						{
							"indexed": true,
							"internalType": "address",
							"name": "rider",
							"type": "address"
						},
						{
							"indexed": true,
							"internalType": "address",
							"name": "driver",
							"type": "address"
						},
						{
							"indexed": false,
							"internalType": "uint256",
							"name": "rideCost",
							"type": "uint256"
						}
					],
					"name": "RideCompleted",
					"type": "event"
				},
				{
					"anonymous": false,
					"inputs": [
						{
							"indexed": true,
							"internalType": "address",
							"name": "rider",
							"type": "address"
						},
						{
							"indexed": true,
							"internalType": "address",
							"name": "driver",
							"type": "address"
						},
						{
							"indexed": false,
							"internalType": "uint256",
							"name": "rideCost",
							"type": "uint256"
						}
					],
					"name": "RideStarted",
					"type": "event"
				},
				{
					"inputs": [],
					"name": "completeRide",
					"outputs": [],
					"stateMutability": "nonpayable",
					"type": "function"
				},
				{
					"inputs": [],
					"name": "driver",
					"outputs": [
						{
							"internalType": "address payable",
							"name": "",
							"type": "address"
						}
					],
					"stateMutability": "view",
					"type": "function"
				},
				{
					"inputs": [],
					"name": "fundRide",
					"outputs": [],
					"stateMutability": "payable",
					"type": "function"
				},
				{
					"inputs": [],
					"name": "rideCompleted",
					"outputs": [
						{
							"internalType": "bool",
							"name": "",
							"type": "bool"
						}
					],
					"stateMutability": "view",
					"type": "function"
				},
				{
					"inputs": [],
					"name": "rideCost",
					"outputs": [
						{
							"internalType": "uint256",
							"name": "",
							"type": "uint256"
						}
					],
					"stateMutability": "view",
					"type": "function"
				},
				{
					"inputs": [],
					"name": "rider",
					"outputs": [
						{
							"internalType": "address",
							"name": "",
							"type": "address"
						}
					],
					"stateMutability": "view",
					"type": "function"
				},
				{
					"inputs": [],
					"name": "startRide",
					"outputs": [],
					"stateMutability": "nonpayable",
					"type": "function"
				}
			],
			"devdoc": {
				"kind": "dev",
				"methods": {},
				"version": 1
			},
			"evm": {
				"assembly": "    /* \"contracts/TaxiRide.sol\":60:1762  contract TaxiRide {... */\n  mstore(0x40, 0x80)\n    /* \"contracts/TaxiRide.sol\":513:728  constructor(address _driver, uint _rideCost) {... */\n  callvalue\n  dup1\n  iszero\n  tag_1\n  jumpi\n  0x00\n  dup1\n  revert\ntag_1:\n  pop\n  mload(0x40)\n  sub(codesize, bytecodeSize)\n  dup1\n  bytecodeSize\n  dup4\n  codecopy\n  dup2\n  dup2\n  add\n  0x40\n  mstore\n  dup2\n  add\n  swap1\n  tag_2\n  swap2\n  swap1\n  tag_3\n  jump\t// in\ntag_2:\n    /* \"contracts/TaxiRide.sol\":577:587  msg.sender */\n  caller\n    /* \"contracts/TaxiRide.sol\":569:574  rider */\n  0x00\n  dup1\n    /* \"contracts/TaxiRide.sol\":569:587  rider = msg.sender */\n  0x0100\n  exp\n  dup2\n  sload\n  dup2\n  0xffffffffffffffffffffffffffffffffffffffff\n  mul\n  not\n  and\n  swap1\n  dup4\n  0xffffffffffffffffffffffffffffffffffffffff\n  and\n  mul\n  or\n  swap1\n  sstore\n  pop\n    /* \"contracts/TaxiRide.sol\":649:656  _driver */\n  dup2\n    /* \"contracts/TaxiRide.sol\":632:638  driver */\n  0x01\n  0x00\n    /* \"contracts/TaxiRide.sol\":632:657  driver = payable(_driver) */\n  0x0100\n  exp\n  dup2\n  sload\n  dup2\n  0xffffffffffffffffffffffffffffffffffffffff\n  mul\n  not\n  and\n  swap1\n  dup4\n  0xffffffffffffffffffffffffffffffffffffffff\n  and\n  mul\n  or\n  swap1\n  sstore\n  pop\n    /* \"contracts/TaxiRide.sol\":679:688  _rideCost */\n  dup1\n    /* \"contracts/TaxiRide.sol\":668:676  rideCost */\n  0x02\n    /* \"contracts/TaxiRide.sol\":668:688  rideCost = _rideCost */\n  dup2\n  swap1\n  sstore\n  pop\n    /* \"contracts/TaxiRide.sol\":715:720  false */\n  0x00\n    /* \"contracts/TaxiRide.sol\":699:712  rideCompleted */\n  0x03\n  0x00\n    /* \"contracts/TaxiRide.sol\":699:720  rideCompleted = false */\n  0x0100\n  exp\n  dup2\n  sload\n  dup2\n  0xff\n  mul\n  not\n  and\n  swap1\n  dup4\n  iszero\n  iszero\n  mul\n  or\n  swap1\n  sstore\n  pop\n    /* \"contracts/TaxiRide.sol\":513:728  constructor(address _driver, uint _rideCost) {... */\n  pop\n  pop\n    /* \"contracts/TaxiRide.sol\":60:1762  contract TaxiRide {... */\n  jump(tag_6)\n    /* \"#utility.yul\":88:205   */\ntag_8:\n    /* \"#utility.yul\":197:198   */\n  0x00\n    /* \"#utility.yul\":194:195   */\n  dup1\n    /* \"#utility.yul\":187:199   */\n  revert\n    /* \"#utility.yul\":334:460   */\ntag_10:\n    /* \"#utility.yul\":371:378   */\n  0x00\n    /* \"#utility.yul\":411:453   */\n  0xffffffffffffffffffffffffffffffffffffffff\n    /* \"#utility.yul\":404:409   */\n  dup3\n    /* \"#utility.yul\":400:454   */\n  and\n    /* \"#utility.yul\":389:454   */\n  swap1\n  pop\n    /* \"#utility.yul\":334:460   */\n  swap2\n  swap1\n  pop\n  jump\t// out\n    /* \"#utility.yul\":466:562   */\ntag_11:\n    /* \"#utility.yul\":503:510   */\n  0x00\n    /* \"#utility.yul\":532:556   */\n  tag_23\n    /* \"#utility.yul\":550:555   */\n  dup3\n    /* \"#utility.yul\":532:556   */\n  tag_10\n  jump\t// in\ntag_23:\n    /* \"#utility.yul\":521:556   */\n  swap1\n  pop\n    /* \"#utility.yul\":466:562   */\n  swap2\n  swap1\n  pop\n  jump\t// out\n    /* \"#utility.yul\":568:690   */\ntag_12:\n    /* \"#utility.yul\":641:665   */\n  tag_25\n    /* \"#utility.yul\":659:664   */\n  dup2\n    /* \"#utility.yul\":641:665   */\n  tag_11\n  jump\t// in\ntag_25:\n    /* \"#utility.yul\":634:639   */\n  dup2\n    /* \"#utility.yul\":631:666   */\n  eq\n    /* \"#utility.yul\":621:684   */\n  tag_26\n  jumpi\n    /* \"#utility.yul\":680:681   */\n  0x00\n    /* \"#utility.yul\":677:678   */\n  dup1\n    /* \"#utility.yul\":670:682   */\n  revert\n    /* \"#utility.yul\":621:684   */\ntag_26:\n    /* \"#utility.yul\":568:690   */\n  pop\n  jump\t// out\n    /* \"#utility.yul\":696:839   */\ntag_13:\n    /* \"#utility.yul\":753:758   */\n  0x00\n    /* \"#utility.yul\":784:790   */\n  dup2\n    /* \"#utility.yul\":778:791   */\n  mload\n    /* \"#utility.yul\":769:791   */\n  swap1\n  pop\n    /* \"#utility.yul\":800:833   */\n  tag_28\n    /* \"#utility.yul\":827:832   */\n  dup2\n    /* \"#utility.yul\":800:833   */\n  tag_12\n  jump\t// in\ntag_28:\n    /* \"#utility.yul\":696:839   */\n  swap3\n  swap2\n  pop\n  pop\n  jump\t// out\n    /* \"#utility.yul\":845:922   */\ntag_14:\n    /* \"#utility.yul\":882:889   */\n  0x00\n    /* \"#utility.yul\":911:916   */\n  dup2\n    /* \"#utility.yul\":900:916   */\n  swap1\n  pop\n    /* \"#utility.yul\":845:922   */\n  swap2\n  swap1\n  pop\n  jump\t// out\n    /* \"#utility.yul\":928:1050   */\ntag_15:\n    /* \"#utility.yul\":1001:1025   */\n  tag_31\n    /* \"#utility.yul\":1019:1024   */\n  dup2\n    /* \"#utility.yul\":1001:1025   */\n  tag_14\n  jump\t// in\ntag_31:\n    /* \"#utility.yul\":994:999   */\n  dup2\n    /* \"#utility.yul\":991:1026   */\n  eq\n    /* \"#utility.yul\":981:1044   */\n  tag_32\n  jumpi\n    /* \"#utility.yul\":1040:1041   */\n  0x00\n    /* \"#utility.yul\":1037:1038   */\n  dup1\n    /* \"#utility.yul\":1030:1042   */\n  revert\n    /* \"#utility.yul\":981:1044   */\ntag_32:\n    /* \"#utility.yul\":928:1050   */\n  pop\n  jump\t// out\n    /* \"#utility.yul\":1056:1199   */\ntag_16:\n    /* \"#utility.yul\":1113:1118   */\n  0x00\n    /* \"#utility.yul\":1144:1150   */\n  dup2\n    /* \"#utility.yul\":1138:1151   */\n  mload\n    /* \"#utility.yul\":1129:1151   */\n  swap1\n  pop\n    /* \"#utility.yul\":1160:1193   */\n  tag_34\n    /* \"#utility.yul\":1187:1192   */\n  dup2\n    /* \"#utility.yul\":1160:1193   */\n  tag_15\n  jump\t// in\ntag_34:\n    /* \"#utility.yul\":1056:1199   */\n  swap3\n  swap2\n  pop\n  pop\n  jump\t// out\n    /* \"#utility.yul\":1205:1712   */\ntag_3:\n    /* \"#utility.yul\":1284:1290   */\n  0x00\n    /* \"#utility.yul\":1292:1298   */\n  dup1\n    /* \"#utility.yul\":1341:1343   */\n  0x40\n    /* \"#utility.yul\":1329:1338   */\n  dup4\n    /* \"#utility.yul\":1320:1327   */\n  dup6\n    /* \"#utility.yul\":1316:1339   */\n  sub\n    /* \"#utility.yul\":1312:1344   */\n  slt\n    /* \"#utility.yul\":1309:1428   */\n  iszero\n  tag_36\n  jumpi\n    /* \"#utility.yul\":1347:1426   */\n  tag_37\n  tag_8\n  jump\t// in\ntag_37:\n    /* \"#utility.yul\":1309:1428   */\ntag_36:\n    /* \"#utility.yul\":1467:1468   */\n  0x00\n    /* \"#utility.yul\":1492:1556   */\n  tag_38\n    /* \"#utility.yul\":1548:1555   */\n  dup6\n    /* \"#utility.yul\":1539:1545   */\n  dup3\n    /* \"#utility.yul\":1528:1537   */\n  dup7\n    /* \"#utility.yul\":1524:1546   */\n  add\n    /* \"#utility.yul\":1492:1556   */\n  tag_13\n  jump\t// in\ntag_38:\n    /* \"#utility.yul\":1482:1556   */\n  swap3\n  pop\n    /* \"#utility.yul\":1438:1566   */\n  pop\n    /* \"#utility.yul\":1605:1607   */\n  0x20\n    /* \"#utility.yul\":1631:1695   */\n  tag_39\n    /* \"#utility.yul\":1687:1694   */\n  dup6\n    /* \"#utility.yul\":1678:1684   */\n  dup3\n    /* \"#utility.yul\":1667:1676   */\n  dup7\n    /* \"#utility.yul\":1663:1685   */\n  add\n    /* \"#utility.yul\":1631:1695   */\n  tag_16\n  jump\t// in\ntag_39:\n    /* \"#utility.yul\":1621:1695   */\n  swap2\n  pop\n    /* \"#utility.yul\":1576:1705   */\n  pop\n    /* \"#utility.yul\":1205:1712   */\n  swap3\n  pop\n  swap3\n  swap1\n  pop\n  jump\t// out\n    /* \"contracts/TaxiRide.sol\":60:1762  contract TaxiRide {... */\ntag_6:\n  dataSize(sub_0)\n  dup1\n  dataOffset(sub_0)\n  0x00\n  codecopy\n  0x00\n  return\nstop\n\nsub_0: assembly {\n        /* \"contracts/TaxiRide.sol\":60:1762  contract TaxiRide {... */\n      mstore(0x40, 0x80)\n      jumpi(tag_1, lt(calldatasize, 0x04))\n      shr(0xe0, calldataload(0x00))\n      dup1\n      0x6ecc5d62\n      gt\n      tag_9\n      jumpi\n      dup1\n      0x6ecc5d62\n      eq\n      tag_5\n      jumpi\n      dup1\n      0x7abb264e\n      eq\n      tag_6\n      jumpi\n      dup1\n      0x7ec8a332\n      eq\n      tag_7\n      jumpi\n      dup1\n      0xe6b547b7\n      eq\n      tag_8\n      jumpi\n      jump(tag_1)\n    tag_9:\n      dup1\n      0x185791df\n      eq\n      tag_2\n      jumpi\n      dup1\n      0x53c0a006\n      eq\n      tag_3\n      jumpi\n      dup1\n      0x6c4d46bd\n      eq\n      tag_4\n      jumpi\n    tag_1:\n      0x00\n      dup1\n      revert\n        /* \"contracts/TaxiRide.sol\":194:214  uint public rideCost */\n    tag_2:\n      callvalue\n      dup1\n      iszero\n      tag_10\n      jumpi\n      0x00\n      dup1\n      revert\n    tag_10:\n      pop\n      tag_11\n      tag_12\n      jump\t// in\n    tag_11:\n      mload(0x40)\n      tag_13\n      swap2\n      swap1\n      tag_14\n      jump\t// in\n    tag_13:\n      mload(0x40)\n      dup1\n      swap2\n      sub\n      swap1\n      return\n        /* \"contracts/TaxiRide.sol\":109:129  address public rider */\n    tag_3:\n      callvalue\n      dup1\n      iszero\n      tag_15\n      jumpi\n      0x00\n      dup1\n      revert\n    tag_15:\n      pop\n      tag_16\n      tag_17\n      jump\t// in\n    tag_16:\n      mload(0x40)\n      tag_18\n      swap2\n      swap1\n      tag_19\n      jump\t// in\n    tag_18:\n      mload(0x40)\n      dup1\n      swap2\n      sub\n      swap1\n      return\n        /* \"contracts/TaxiRide.sol\":221:246  bool public rideCompleted */\n    tag_4:\n      callvalue\n      dup1\n      iszero\n      tag_20\n      jumpi\n      0x00\n      dup1\n      revert\n    tag_20:\n      pop\n      tag_21\n      tag_22\n      jump\t// in\n    tag_21:\n      mload(0x40)\n      tag_23\n      swap2\n      swap1\n      tag_24\n      jump\t// in\n    tag_23:\n      mload(0x40)\n      dup1\n      swap2\n      sub\n      swap1\n      return\n        /* \"contracts/TaxiRide.sol\":146:175  address payable public driver */\n    tag_5:\n      callvalue\n      dup1\n      iszero\n      tag_25\n      jumpi\n      0x00\n      dup1\n      revert\n    tag_25:\n      pop\n      tag_26\n      tag_27\n      jump\t// in\n    tag_26:\n      mload(0x40)\n      tag_28\n      swap2\n      swap1\n      tag_29\n      jump\t// in\n    tag_28:\n      mload(0x40)\n      dup1\n      swap2\n      sub\n      swap1\n      return\n        /* \"contracts/TaxiRide.sol\":1571:1759  function fundRide() external payable {... */\n    tag_6:\n      tag_30\n      tag_31\n      jump\t// in\n    tag_30:\n      stop\n        /* \"contracts/TaxiRide.sol\":771:1039  function startRide() external {... */\n    tag_7:\n      callvalue\n      dup1\n      iszero\n      tag_32\n      jumpi\n      0x00\n      dup1\n      revert\n    tag_32:\n      pop\n      tag_33\n      tag_34\n      jump\t// in\n    tag_33:\n      stop\n        /* \"contracts/TaxiRide.sol\":1106:1506  function completeRide() external {... */\n    tag_8:\n      callvalue\n      dup1\n      iszero\n      tag_35\n      jumpi\n      0x00\n      dup1\n      revert\n    tag_35:\n      pop\n      tag_36\n      tag_37\n      jump\t// in\n    tag_36:\n      stop\n        /* \"contracts/TaxiRide.sol\":194:214  uint public rideCost */\n    tag_12:\n      sload(0x02)\n      dup2\n      jump\t// out\n        /* \"contracts/TaxiRide.sol\":109:129  address public rider */\n    tag_17:\n      0x00\n      dup1\n      sload\n      swap1\n      0x0100\n      exp\n      swap1\n      div\n      0xffffffffffffffffffffffffffffffffffffffff\n      and\n      dup2\n      jump\t// out\n        /* \"contracts/TaxiRide.sol\":221:246  bool public rideCompleted */\n    tag_22:\n      0x03\n      0x00\n      swap1\n      sload\n      swap1\n      0x0100\n      exp\n      swap1\n      div\n      0xff\n      and\n      dup2\n      jump\t// out\n        /* \"contracts/TaxiRide.sol\":146:175  address payable public driver */\n    tag_27:\n      0x01\n      0x00\n      swap1\n      sload\n      swap1\n      0x0100\n      exp\n      swap1\n      div\n      0xffffffffffffffffffffffffffffffffffffffff\n      and\n      dup2\n      jump\t// out\n        /* \"contracts/TaxiRide.sol\":1571:1759  function fundRide() external payable {... */\n    tag_31:\n        /* \"contracts/TaxiRide.sol\":1641:1646  rider */\n      0x00\n      dup1\n      sload\n      swap1\n      0x0100\n      exp\n      swap1\n      div\n      0xffffffffffffffffffffffffffffffffffffffff\n      and\n        /* \"contracts/TaxiRide.sol\":1627:1646  msg.sender == rider */\n      0xffffffffffffffffffffffffffffffffffffffff\n      and\n        /* \"contracts/TaxiRide.sol\":1627:1637  msg.sender */\n      caller\n        /* \"contracts/TaxiRide.sol\":1627:1646  msg.sender == rider */\n      0xffffffffffffffffffffffffffffffffffffffff\n      and\n      eq\n        /* \"contracts/TaxiRide.sol\":1619:1684  require(msg.sender == rider, \"Only the rider can fund the ride.\") */\n      tag_39\n      jumpi\n      mload(0x40)\n      0x08c379a000000000000000000000000000000000000000000000000000000000\n      dup2\n      mstore\n      0x04\n      add\n      tag_40\n      swap1\n      tag_41\n      jump\t// in\n    tag_40:\n      mload(0x40)\n      dup1\n      swap2\n      sub\n      swap1\n      revert\n    tag_39:\n        /* \"contracts/TaxiRide.sol\":1716:1724  rideCost */\n      sload(0x02)\n        /* \"contracts/TaxiRide.sol\":1703:1712  msg.value */\n      callvalue\n        /* \"contracts/TaxiRide.sol\":1703:1724  msg.value == rideCost */\n      eq\n        /* \"contracts/TaxiRide.sol\":1695:1751  require(msg.value == rideCost, \"Incorrect amount sent.\") */\n      tag_42\n      jumpi\n      mload(0x40)\n      0x08c379a000000000000000000000000000000000000000000000000000000000\n      dup2\n      mstore\n      0x04\n      add\n      tag_43\n      swap1\n      tag_44\n      jump\t// in\n    tag_43:\n      mload(0x40)\n      dup1\n      swap2\n      sub\n      swap1\n      revert\n    tag_42:\n        /* \"contracts/TaxiRide.sol\":1571:1759  function fundRide() external payable {... */\n      jump\t// out\n        /* \"contracts/TaxiRide.sol\":771:1039  function startRide() external {... */\n    tag_34:\n        /* \"contracts/TaxiRide.sol\":834:839  rider */\n      0x00\n      dup1\n      sload\n      swap1\n      0x0100\n      exp\n      swap1\n      div\n      0xffffffffffffffffffffffffffffffffffffffff\n      and\n        /* \"contracts/TaxiRide.sol\":820:839  msg.sender == rider */\n      0xffffffffffffffffffffffffffffffffffffffff\n      and\n        /* \"contracts/TaxiRide.sol\":820:830  msg.sender */\n      caller\n        /* \"contracts/TaxiRide.sol\":820:839  msg.sender == rider */\n      0xffffffffffffffffffffffffffffffffffffffff\n      and\n      eq\n        /* \"contracts/TaxiRide.sol\":812:878  require(msg.sender == rider, \"Only the rider can start the ride.\") */\n      tag_46\n      jumpi\n      mload(0x40)\n      0x08c379a000000000000000000000000000000000000000000000000000000000\n      dup2\n      mstore\n      0x04\n      add\n      tag_47\n      swap1\n      tag_48\n      jump\t// in\n    tag_47:\n      mload(0x40)\n      dup1\n      swap2\n      sub\n      swap1\n      revert\n    tag_46:\n        /* \"contracts/TaxiRide.sol\":922:930  rideCost */\n      sload(0x02)\n        /* \"contracts/TaxiRide.sol\":897:918  address(this).balance */\n      selfbalance\n        /* \"contracts/TaxiRide.sol\":897:930  address(this).balance >= rideCost */\n      lt\n      iszero\n        /* \"contracts/TaxiRide.sol\":889:969  require(address(this).balance >= rideCost, \"Insufficient balance for the ride.\") */\n      tag_49\n      jumpi\n      mload(0x40)\n      0x08c379a000000000000000000000000000000000000000000000000000000000\n      dup2\n      mstore\n      0x04\n      add\n      tag_50\n      swap1\n      tag_51\n      jump\t// in\n    tag_50:\n      mload(0x40)\n      dup1\n      swap2\n      sub\n      swap1\n      revert\n    tag_49:\n        /* \"contracts/TaxiRide.sol\":1014:1020  driver */\n      0x01\n      0x00\n      swap1\n      sload\n      swap1\n      0x0100\n      exp\n      swap1\n      div\n      0xffffffffffffffffffffffffffffffffffffffff\n      and\n        /* \"contracts/TaxiRide.sol\":995:1031  RideStarted(rider, driver, rideCost) */\n      0xffffffffffffffffffffffffffffffffffffffff\n      and\n        /* \"contracts/TaxiRide.sol\":1007:1012  rider */\n      0x00\n      dup1\n      sload\n      swap1\n      0x0100\n      exp\n      swap1\n      div\n      0xffffffffffffffffffffffffffffffffffffffff\n      and\n        /* \"contracts/TaxiRide.sol\":995:1031  RideStarted(rider, driver, rideCost) */\n      0xffffffffffffffffffffffffffffffffffffffff\n      and\n      0xf9286e64f922f5c9d05a2b4d2be293477bb82b620912be5a10311b7b80d4e019\n        /* \"contracts/TaxiRide.sol\":1022:1030  rideCost */\n      sload(0x02)\n        /* \"contracts/TaxiRide.sol\":995:1031  RideStarted(rider, driver, rideCost) */\n      mload(0x40)\n      tag_52\n      swap2\n      swap1\n      tag_14\n      jump\t// in\n    tag_52:\n      mload(0x40)\n      dup1\n      swap2\n      sub\n      swap1\n      log3\n        /* \"contracts/TaxiRide.sol\":771:1039  function startRide() external {... */\n      jump\t// out\n        /* \"contracts/TaxiRide.sol\":1106:1506  function completeRide() external {... */\n    tag_37:\n        /* \"contracts/TaxiRide.sol\":1172:1177  rider */\n      0x00\n      dup1\n      sload\n      swap1\n      0x0100\n      exp\n      swap1\n      div\n      0xffffffffffffffffffffffffffffffffffffffff\n      and\n        /* \"contracts/TaxiRide.sol\":1158:1177  msg.sender == rider */\n      0xffffffffffffffffffffffffffffffffffffffff\n      and\n        /* \"contracts/TaxiRide.sol\":1158:1168  msg.sender */\n      caller\n        /* \"contracts/TaxiRide.sol\":1158:1177  msg.sender == rider */\n      0xffffffffffffffffffffffffffffffffffffffff\n      and\n      eq\n        /* \"contracts/TaxiRide.sol\":1150:1219  require(msg.sender == rider, \"Only the rider can complete the ride.\") */\n      tag_54\n      jumpi\n      mload(0x40)\n      0x08c379a000000000000000000000000000000000000000000000000000000000\n      dup2\n      mstore\n      0x04\n      add\n      tag_55\n      swap1\n      tag_56\n      jump\t// in\n    tag_55:\n      mload(0x40)\n      dup1\n      swap2\n      sub\n      swap1\n      revert\n    tag_54:\n        /* \"contracts/TaxiRide.sol\":1239:1252  rideCompleted */\n      0x03\n      0x00\n      swap1\n      sload\n      swap1\n      0x0100\n      exp\n      swap1\n      div\n      0xff\n      and\n        /* \"contracts/TaxiRide.sol\":1238:1252  !rideCompleted */\n      iszero\n        /* \"contracts/TaxiRide.sol\":1230:1289  require(!rideCompleted, \"Ride has already been completed.\") */\n      tag_57\n      jumpi\n      mload(0x40)\n      0x08c379a000000000000000000000000000000000000000000000000000000000\n      dup2\n      mstore\n      0x04\n      add\n      tag_58\n      swap1\n      tag_59\n      jump\t// in\n    tag_58:\n      mload(0x40)\n      dup1\n      swap2\n      sub\n      swap1\n      revert\n    tag_57:\n        /* \"contracts/TaxiRide.sol\":1353:1357  true */\n      0x01\n        /* \"contracts/TaxiRide.sol\":1337:1350  rideCompleted */\n      0x03\n      0x00\n        /* \"contracts/TaxiRide.sol\":1337:1357  rideCompleted = true */\n      0x0100\n      exp\n      dup2\n      sload\n      dup2\n      0xff\n      mul\n      not\n      and\n      swap1\n      dup4\n      iszero\n      iszero\n      mul\n      or\n      swap1\n      sstore\n      pop\n        /* \"contracts/TaxiRide.sol\":1417:1423  driver */\n      0x01\n      0x00\n      swap1\n      sload\n      swap1\n      0x0100\n      exp\n      swap1\n      div\n      0xffffffffffffffffffffffffffffffffffffffff\n      and\n        /* \"contracts/TaxiRide.sol\":1417:1432  driver.transfer */\n      0xffffffffffffffffffffffffffffffffffffffff\n      and\n        /* \"contracts/TaxiRide.sol\":1417:1442  driver.transfer(rideCost) */\n      0x08fc\n        /* \"contracts/TaxiRide.sol\":1433:1441  rideCost */\n      sload(0x02)\n        /* \"contracts/TaxiRide.sol\":1417:1442  driver.transfer(rideCost) */\n      swap1\n      dup2\n      iszero\n      mul\n      swap1\n      mload(0x40)\n      0x00\n      mload(0x40)\n      dup1\n      dup4\n      sub\n      dup2\n      dup6\n      dup9\n      dup9\n      call\n      swap4\n      pop\n      pop\n      pop\n      pop\n      iszero\n      dup1\n      iszero\n      tag_61\n      jumpi\n      returndatasize\n      0x00\n      dup1\n      returndatacopy\n      revert(0x00, returndatasize)\n    tag_61:\n      pop\n        /* \"contracts/TaxiRide.sol\":1481:1487  driver */\n      0x01\n      0x00\n      swap1\n      sload\n      swap1\n      0x0100\n      exp\n      swap1\n      div\n      0xffffffffffffffffffffffffffffffffffffffff\n      and\n        /* \"contracts/TaxiRide.sol\":1460:1498  RideCompleted(rider, driver, rideCost) */\n      0xffffffffffffffffffffffffffffffffffffffff\n      and\n        /* \"contracts/TaxiRide.sol\":1474:1479  rider */\n      0x00\n      dup1\n      sload\n      swap1\n      0x0100\n      exp\n      swap1\n      div\n      0xffffffffffffffffffffffffffffffffffffffff\n      and\n        /* \"contracts/TaxiRide.sol\":1460:1498  RideCompleted(rider, driver, rideCost) */\n      0xffffffffffffffffffffffffffffffffffffffff\n      and\n      0x79228b1a6bc0e0ab214713a868da328ccf24a9a88d9822f4cdd568706c2cfa80\n        /* \"contracts/TaxiRide.sol\":1489:1497  rideCost */\n      sload(0x02)\n        /* \"contracts/TaxiRide.sol\":1460:1498  RideCompleted(rider, driver, rideCost) */\n      mload(0x40)\n      tag_62\n      swap2\n      swap1\n      tag_14\n      jump\t// in\n    tag_62:\n      mload(0x40)\n      dup1\n      swap2\n      sub\n      swap1\n      log3\n        /* \"contracts/TaxiRide.sol\":1106:1506  function completeRide() external {... */\n      jump\t// out\n        /* \"#utility.yul\":7:84   */\n    tag_63:\n        /* \"#utility.yul\":44:51   */\n      0x00\n        /* \"#utility.yul\":73:78   */\n      dup2\n        /* \"#utility.yul\":62:78   */\n      swap1\n      pop\n        /* \"#utility.yul\":7:84   */\n      swap2\n      swap1\n      pop\n      jump\t// out\n        /* \"#utility.yul\":90:208   */\n    tag_64:\n        /* \"#utility.yul\":177:201   */\n      tag_88\n        /* \"#utility.yul\":195:200   */\n      dup2\n        /* \"#utility.yul\":177:201   */\n      tag_63\n      jump\t// in\n    tag_88:\n        /* \"#utility.yul\":172:175   */\n      dup3\n        /* \"#utility.yul\":165:202   */\n      mstore\n        /* \"#utility.yul\":90:208   */\n      pop\n      pop\n      jump\t// out\n        /* \"#utility.yul\":214:436   */\n    tag_14:\n        /* \"#utility.yul\":307:311   */\n      0x00\n        /* \"#utility.yul\":345:347   */\n      0x20\n        /* \"#utility.yul\":334:343   */\n      dup3\n        /* \"#utility.yul\":330:348   */\n      add\n        /* \"#utility.yul\":322:348   */\n      swap1\n      pop\n        /* \"#utility.yul\":358:429   */\n      tag_90\n        /* \"#utility.yul\":426:427   */\n      0x00\n        /* \"#utility.yul\":415:424   */\n      dup4\n        /* \"#utility.yul\":411:428   */\n      add\n        /* \"#utility.yul\":402:408   */\n      dup5\n        /* \"#utility.yul\":358:429   */\n      tag_64\n      jump\t// in\n    tag_90:\n        /* \"#utility.yul\":214:436   */\n      swap3\n      swap2\n      pop\n      pop\n      jump\t// out\n        /* \"#utility.yul\":442:568   */\n    tag_65:\n        /* \"#utility.yul\":479:486   */\n      0x00\n        /* \"#utility.yul\":519:561   */\n      0xffffffffffffffffffffffffffffffffffffffff\n        /* \"#utility.yul\":512:517   */\n      dup3\n        /* \"#utility.yul\":508:562   */\n      and\n        /* \"#utility.yul\":497:562   */\n      swap1\n      pop\n        /* \"#utility.yul\":442:568   */\n      swap2\n      swap1\n      pop\n      jump\t// out\n        /* \"#utility.yul\":574:670   */\n    tag_66:\n        /* \"#utility.yul\":611:618   */\n      0x00\n        /* \"#utility.yul\":640:664   */\n      tag_93\n        /* \"#utility.yul\":658:663   */\n      dup3\n        /* \"#utility.yul\":640:664   */\n      tag_65\n      jump\t// in\n    tag_93:\n        /* \"#utility.yul\":629:664   */\n      swap1\n      pop\n        /* \"#utility.yul\":574:670   */\n      swap2\n      swap1\n      pop\n      jump\t// out\n        /* \"#utility.yul\":676:794   */\n    tag_67:\n        /* \"#utility.yul\":763:787   */\n      tag_95\n        /* \"#utility.yul\":781:786   */\n      dup2\n        /* \"#utility.yul\":763:787   */\n      tag_66\n      jump\t// in\n    tag_95:\n        /* \"#utility.yul\":758:761   */\n      dup3\n        /* \"#utility.yul\":751:788   */\n      mstore\n        /* \"#utility.yul\":676:794   */\n      pop\n      pop\n      jump\t// out\n        /* \"#utility.yul\":800:1022   */\n    tag_19:\n        /* \"#utility.yul\":893:897   */\n      0x00\n        /* \"#utility.yul\":931:933   */\n      0x20\n        /* \"#utility.yul\":920:929   */\n      dup3\n        /* \"#utility.yul\":916:934   */\n      add\n        /* \"#utility.yul\":908:934   */\n      swap1\n      pop\n        /* \"#utility.yul\":944:1015   */\n      tag_97\n        /* \"#utility.yul\":1012:1013   */\n      0x00\n        /* \"#utility.yul\":1001:1010   */\n      dup4\n        /* \"#utility.yul\":997:1014   */\n      add\n        /* \"#utility.yul\":988:994   */\n      dup5\n        /* \"#utility.yul\":944:1015   */\n      tag_67\n      jump\t// in\n    tag_97:\n        /* \"#utility.yul\":800:1022   */\n      swap3\n      swap2\n      pop\n      pop\n      jump\t// out\n        /* \"#utility.yul\":1028:1118   */\n    tag_68:\n        /* \"#utility.yul\":1062:1069   */\n      0x00\n        /* \"#utility.yul\":1105:1110   */\n      dup2\n        /* \"#utility.yul\":1098:1111   */\n      iszero\n        /* \"#utility.yul\":1091:1112   */\n      iszero\n        /* \"#utility.yul\":1080:1112   */\n      swap1\n      pop\n        /* \"#utility.yul\":1028:1118   */\n      swap2\n      swap1\n      pop\n      jump\t// out\n        /* \"#utility.yul\":1124:1233   */\n    tag_69:\n        /* \"#utility.yul\":1205:1226   */\n      tag_100\n        /* \"#utility.yul\":1220:1225   */\n      dup2\n        /* \"#utility.yul\":1205:1226   */\n      tag_68\n      jump\t// in\n    tag_100:\n        /* \"#utility.yul\":1200:1203   */\n      dup3\n        /* \"#utility.yul\":1193:1227   */\n      mstore\n        /* \"#utility.yul\":1124:1233   */\n      pop\n      pop\n      jump\t// out\n        /* \"#utility.yul\":1239:1449   */\n    tag_24:\n        /* \"#utility.yul\":1326:1330   */\n      0x00\n        /* \"#utility.yul\":1364:1366   */\n      0x20\n        /* \"#utility.yul\":1353:1362   */\n      dup3\n        /* \"#utility.yul\":1349:1367   */\n      add\n        /* \"#utility.yul\":1341:1367   */\n      swap1\n      pop\n        /* \"#utility.yul\":1377:1442   */\n      tag_102\n        /* \"#utility.yul\":1439:1440   */\n      0x00\n        /* \"#utility.yul\":1428:1437   */\n      dup4\n        /* \"#utility.yul\":1424:1441   */\n      add\n        /* \"#utility.yul\":1415:1421   */\n      dup5\n        /* \"#utility.yul\":1377:1442   */\n      tag_69\n      jump\t// in\n    tag_102:\n        /* \"#utility.yul\":1239:1449   */\n      swap3\n      swap2\n      pop\n      pop\n      jump\t// out\n        /* \"#utility.yul\":1455:1559   */\n    tag_70:\n        /* \"#utility.yul\":1500:1507   */\n      0x00\n        /* \"#utility.yul\":1529:1553   */\n      tag_104\n        /* \"#utility.yul\":1547:1552   */\n      dup3\n        /* \"#utility.yul\":1529:1553   */\n      tag_65\n      jump\t// in\n    tag_104:\n        /* \"#utility.yul\":1518:1553   */\n      swap1\n      pop\n        /* \"#utility.yul\":1455:1559   */\n      swap2\n      swap1\n      pop\n      jump\t// out\n        /* \"#utility.yul\":1565:1707   */\n    tag_71:\n        /* \"#utility.yul\":1668:1700   */\n      tag_106\n        /* \"#utility.yul\":1694:1699   */\n      dup2\n        /* \"#utility.yul\":1668:1700   */\n      tag_70\n      jump\t// in\n    tag_106:\n        /* \"#utility.yul\":1663:1666   */\n      dup3\n        /* \"#utility.yul\":1656:1701   */\n      mstore\n        /* \"#utility.yul\":1565:1707   */\n      pop\n      pop\n      jump\t// out\n        /* \"#utility.yul\":1713:1967   */\n    tag_29:\n        /* \"#utility.yul\":1822:1826   */\n      0x00\n        /* \"#utility.yul\":1860:1862   */\n      0x20\n        /* \"#utility.yul\":1849:1858   */\n      dup3\n        /* \"#utility.yul\":1845:1863   */\n      add\n        /* \"#utility.yul\":1837:1863   */\n      swap1\n      pop\n        /* \"#utility.yul\":1873:1960   */\n      tag_108\n        /* \"#utility.yul\":1957:1958   */\n      0x00\n        /* \"#utility.yul\":1946:1955   */\n      dup4\n        /* \"#utility.yul\":1942:1959   */\n      add\n        /* \"#utility.yul\":1933:1939   */\n      dup5\n        /* \"#utility.yul\":1873:1960   */\n      tag_71\n      jump\t// in\n    tag_108:\n        /* \"#utility.yul\":1713:1967   */\n      swap3\n      swap2\n      pop\n      pop\n      jump\t// out\n        /* \"#utility.yul\":1973:2142   */\n    tag_72:\n        /* \"#utility.yul\":2057:2068   */\n      0x00\n        /* \"#utility.yul\":2091:2097   */\n      dup3\n        /* \"#utility.yul\":2086:2089   */\n      dup3\n        /* \"#utility.yul\":2079:2098   */\n      mstore\n        /* \"#utility.yul\":2131:2135   */\n      0x20\n        /* \"#utility.yul\":2126:2129   */\n      dup3\n        /* \"#utility.yul\":2122:2136   */\n      add\n        /* \"#utility.yul\":2107:2136   */\n      swap1\n      pop\n        /* \"#utility.yul\":1973:2142   */\n      swap3\n      swap2\n      pop\n      pop\n      jump\t// out\n        /* \"#utility.yul\":2148:2368   */\n    tag_73:\n        /* \"#utility.yul\":2288:2322   */\n      0x4f6e6c79207468652072696465722063616e2066756e64207468652072696465\n        /* \"#utility.yul\":2284:2285   */\n      0x00\n        /* \"#utility.yul\":2276:2282   */\n      dup3\n        /* \"#utility.yul\":2272:2286   */\n      add\n        /* \"#utility.yul\":2265:2323   */\n      mstore\n        /* \"#utility.yul\":2357:2360   */\n      0x2e00000000000000000000000000000000000000000000000000000000000000\n        /* \"#utility.yul\":2352:2354   */\n      0x20\n        /* \"#utility.yul\":2344:2350   */\n      dup3\n        /* \"#utility.yul\":2340:2355   */\n      add\n        /* \"#utility.yul\":2333:2361   */\n      mstore\n        /* \"#utility.yul\":2148:2368   */\n      pop\n      jump\t// out\n        /* \"#utility.yul\":2374:2740   */\n    tag_74:\n        /* \"#utility.yul\":2516:2519   */\n      0x00\n        /* \"#utility.yul\":2537:2604   */\n      tag_112\n        /* \"#utility.yul\":2601:2603   */\n      0x21\n        /* \"#utility.yul\":2596:2599   */\n      dup4\n        /* \"#utility.yul\":2537:2604   */\n      tag_72\n      jump\t// in\n    tag_112:\n        /* \"#utility.yul\":2530:2604   */\n      swap2\n      pop\n        /* \"#utility.yul\":2613:2706   */\n      tag_113\n        /* \"#utility.yul\":2702:2705   */\n      dup3\n        /* \"#utility.yul\":2613:2706   */\n      tag_73\n      jump\t// in\n    tag_113:\n        /* \"#utility.yul\":2731:2733   */\n      0x40\n        /* \"#utility.yul\":2726:2729   */\n      dup3\n        /* \"#utility.yul\":2722:2734   */\n      add\n        /* \"#utility.yul\":2715:2734   */\n      swap1\n      pop\n        /* \"#utility.yul\":2374:2740   */\n      swap2\n      swap1\n      pop\n      jump\t// out\n        /* \"#utility.yul\":2746:3165   */\n    tag_41:\n        /* \"#utility.yul\":2912:2916   */\n      0x00\n        /* \"#utility.yul\":2950:2952   */\n      0x20\n        /* \"#utility.yul\":2939:2948   */\n      dup3\n        /* \"#utility.yul\":2935:2953   */\n      add\n        /* \"#utility.yul\":2927:2953   */\n      swap1\n      pop\n        /* \"#utility.yul\":2999:3008   */\n      dup2\n        /* \"#utility.yul\":2993:2997   */\n      dup2\n        /* \"#utility.yul\":2989:3009   */\n      sub\n        /* \"#utility.yul\":2985:2986   */\n      0x00\n        /* \"#utility.yul\":2974:2983   */\n      dup4\n        /* \"#utility.yul\":2970:2987   */\n      add\n        /* \"#utility.yul\":2963:3010   */\n      mstore\n        /* \"#utility.yul\":3027:3158   */\n      tag_115\n        /* \"#utility.yul\":3153:3157   */\n      dup2\n        /* \"#utility.yul\":3027:3158   */\n      tag_74\n      jump\t// in\n    tag_115:\n        /* \"#utility.yul\":3019:3158   */\n      swap1\n      pop\n        /* \"#utility.yul\":2746:3165   */\n      swap2\n      swap1\n      pop\n      jump\t// out\n        /* \"#utility.yul\":3171:3343   */\n    tag_75:\n        /* \"#utility.yul\":3311:3335   */\n      0x496e636f727265637420616d6f756e742073656e742e00000000000000000000\n        /* \"#utility.yul\":3307:3308   */\n      0x00\n        /* \"#utility.yul\":3299:3305   */\n      dup3\n        /* \"#utility.yul\":3295:3309   */\n      add\n        /* \"#utility.yul\":3288:3336   */\n      mstore\n        /* \"#utility.yul\":3171:3343   */\n      pop\n      jump\t// out\n        /* \"#utility.yul\":3349:3715   */\n    tag_76:\n        /* \"#utility.yul\":3491:3494   */\n      0x00\n        /* \"#utility.yul\":3512:3579   */\n      tag_118\n        /* \"#utility.yul\":3576:3578   */\n      0x16\n        /* \"#utility.yul\":3571:3574   */\n      dup4\n        /* \"#utility.yul\":3512:3579   */\n      tag_72\n      jump\t// in\n    tag_118:\n        /* \"#utility.yul\":3505:3579   */\n      swap2\n      pop\n        /* \"#utility.yul\":3588:3681   */\n      tag_119\n        /* \"#utility.yul\":3677:3680   */\n      dup3\n        /* \"#utility.yul\":3588:3681   */\n      tag_75\n      jump\t// in\n    tag_119:\n        /* \"#utility.yul\":3706:3708   */\n      0x20\n        /* \"#utility.yul\":3701:3704   */\n      dup3\n        /* \"#utility.yul\":3697:3709   */\n      add\n        /* \"#utility.yul\":3690:3709   */\n      swap1\n      pop\n        /* \"#utility.yul\":3349:3715   */\n      swap2\n      swap1\n      pop\n      jump\t// out\n        /* \"#utility.yul\":3721:4140   */\n    tag_44:\n        /* \"#utility.yul\":3887:3891   */\n      0x00\n        /* \"#utility.yul\":3925:3927   */\n      0x20\n        /* \"#utility.yul\":3914:3923   */\n      dup3\n        /* \"#utility.yul\":3910:3928   */\n      add\n        /* \"#utility.yul\":3902:3928   */\n      swap1\n      pop\n        /* \"#utility.yul\":3974:3983   */\n      dup2\n        /* \"#utility.yul\":3968:3972   */\n      dup2\n        /* \"#utility.yul\":3964:3984   */\n      sub\n        /* \"#utility.yul\":3960:3961   */\n      0x00\n        /* \"#utility.yul\":3949:3958   */\n      dup4\n        /* \"#utility.yul\":3945:3962   */\n      add\n        /* \"#utility.yul\":3938:3985   */\n      mstore\n        /* \"#utility.yul\":4002:4133   */\n      tag_121\n        /* \"#utility.yul\":4128:4132   */\n      dup2\n        /* \"#utility.yul\":4002:4133   */\n      tag_76\n      jump\t// in\n    tag_121:\n        /* \"#utility.yul\":3994:4133   */\n      swap1\n      pop\n        /* \"#utility.yul\":3721:4140   */\n      swap2\n      swap1\n      pop\n      jump\t// out\n        /* \"#utility.yul\":4146:4367   */\n    tag_77:\n        /* \"#utility.yul\":4286:4320   */\n      0x4f6e6c79207468652072696465722063616e2073746172742074686520726964\n        /* \"#utility.yul\":4282:4283   */\n      0x00\n        /* \"#utility.yul\":4274:4280   */\n      dup3\n        /* \"#utility.yul\":4270:4284   */\n      add\n        /* \"#utility.yul\":4263:4321   */\n      mstore\n        /* \"#utility.yul\":4355:4359   */\n      0x652e000000000000000000000000000000000000000000000000000000000000\n        /* \"#utility.yul\":4350:4352   */\n      0x20\n        /* \"#utility.yul\":4342:4348   */\n      dup3\n        /* \"#utility.yul\":4338:4353   */\n      add\n        /* \"#utility.yul\":4331:4360   */\n      mstore\n        /* \"#utility.yul\":4146:4367   */\n      pop\n      jump\t// out\n        /* \"#utility.yul\":4373:4739   */\n    tag_78:\n        /* \"#utility.yul\":4515:4518   */\n      0x00\n        /* \"#utility.yul\":4536:4603   */\n      tag_124\n        /* \"#utility.yul\":4600:4602   */\n      0x22\n        /* \"#utility.yul\":4595:4598   */\n      dup4\n        /* \"#utility.yul\":4536:4603   */\n      tag_72\n      jump\t// in\n    tag_124:\n        /* \"#utility.yul\":4529:4603   */\n      swap2\n      pop\n        /* \"#utility.yul\":4612:4705   */\n      tag_125\n        /* \"#utility.yul\":4701:4704   */\n      dup3\n        /* \"#utility.yul\":4612:4705   */\n      tag_77\n      jump\t// in\n    tag_125:\n        /* \"#utility.yul\":4730:4732   */\n      0x40\n        /* \"#utility.yul\":4725:4728   */\n      dup3\n        /* \"#utility.yul\":4721:4733   */\n      add\n        /* \"#utility.yul\":4714:4733   */\n      swap1\n      pop\n        /* \"#utility.yul\":4373:4739   */\n      swap2\n      swap1\n      pop\n      jump\t// out\n        /* \"#utility.yul\":4745:5164   */\n    tag_48:\n        /* \"#utility.yul\":4911:4915   */\n      0x00\n        /* \"#utility.yul\":4949:4951   */\n      0x20\n        /* \"#utility.yul\":4938:4947   */\n      dup3\n        /* \"#utility.yul\":4934:4952   */\n      add\n        /* \"#utility.yul\":4926:4952   */\n      swap1\n      pop\n        /* \"#utility.yul\":4998:5007   */\n      dup2\n        /* \"#utility.yul\":4992:4996   */\n      dup2\n        /* \"#utility.yul\":4988:5008   */\n      sub\n        /* \"#utility.yul\":4984:4985   */\n      0x00\n        /* \"#utility.yul\":4973:4982   */\n      dup4\n        /* \"#utility.yul\":4969:4986   */\n      add\n        /* \"#utility.yul\":4962:5009   */\n      mstore\n        /* \"#utility.yul\":5026:5157   */\n      tag_127\n        /* \"#utility.yul\":5152:5156   */\n      dup2\n        /* \"#utility.yul\":5026:5157   */\n      tag_78\n      jump\t// in\n    tag_127:\n        /* \"#utility.yul\":5018:5157   */\n      swap1\n      pop\n        /* \"#utility.yul\":4745:5164   */\n      swap2\n      swap1\n      pop\n      jump\t// out\n        /* \"#utility.yul\":5170:5391   */\n    tag_79:\n        /* \"#utility.yul\":5310:5344   */\n      0x496e73756666696369656e742062616c616e636520666f722074686520726964\n        /* \"#utility.yul\":5306:5307   */\n      0x00\n        /* \"#utility.yul\":5298:5304   */\n      dup3\n        /* \"#utility.yul\":5294:5308   */\n      add\n        /* \"#utility.yul\":5287:5345   */\n      mstore\n        /* \"#utility.yul\":5379:5383   */\n      0x652e000000000000000000000000000000000000000000000000000000000000\n        /* \"#utility.yul\":5374:5376   */\n      0x20\n        /* \"#utility.yul\":5366:5372   */\n      dup3\n        /* \"#utility.yul\":5362:5377   */\n      add\n        /* \"#utility.yul\":5355:5384   */\n      mstore\n        /* \"#utility.yul\":5170:5391   */\n      pop\n      jump\t// out\n        /* \"#utility.yul\":5397:5763   */\n    tag_80:\n        /* \"#utility.yul\":5539:5542   */\n      0x00\n        /* \"#utility.yul\":5560:5627   */\n      tag_130\n        /* \"#utility.yul\":5624:5626   */\n      0x22\n        /* \"#utility.yul\":5619:5622   */\n      dup4\n        /* \"#utility.yul\":5560:5627   */\n      tag_72\n      jump\t// in\n    tag_130:\n        /* \"#utility.yul\":5553:5627   */\n      swap2\n      pop\n        /* \"#utility.yul\":5636:5729   */\n      tag_131\n        /* \"#utility.yul\":5725:5728   */\n      dup3\n        /* \"#utility.yul\":5636:5729   */\n      tag_79\n      jump\t// in\n    tag_131:\n        /* \"#utility.yul\":5754:5756   */\n      0x40\n        /* \"#utility.yul\":5749:5752   */\n      dup3\n        /* \"#utility.yul\":5745:5757   */\n      add\n        /* \"#utility.yul\":5738:5757   */\n      swap1\n      pop\n        /* \"#utility.yul\":5397:5763   */\n      swap2\n      swap1\n      pop\n      jump\t// out\n        /* \"#utility.yul\":5769:6188   */\n    tag_51:\n        /* \"#utility.yul\":5935:5939   */\n      0x00\n        /* \"#utility.yul\":5973:5975   */\n      0x20\n        /* \"#utility.yul\":5962:5971   */\n      dup3\n        /* \"#utility.yul\":5958:5976   */\n      add\n        /* \"#utility.yul\":5950:5976   */\n      swap1\n      pop\n        /* \"#utility.yul\":6022:6031   */\n      dup2\n        /* \"#utility.yul\":6016:6020   */\n      dup2\n        /* \"#utility.yul\":6012:6032   */\n      sub\n        /* \"#utility.yul\":6008:6009   */\n      0x00\n        /* \"#utility.yul\":5997:6006   */\n      dup4\n        /* \"#utility.yul\":5993:6010   */\n      add\n        /* \"#utility.yul\":5986:6033   */\n      mstore\n        /* \"#utility.yul\":6050:6181   */\n      tag_133\n        /* \"#utility.yul\":6176:6180   */\n      dup2\n        /* \"#utility.yul\":6050:6181   */\n      tag_80\n      jump\t// in\n    tag_133:\n        /* \"#utility.yul\":6042:6181   */\n      swap1\n      pop\n        /* \"#utility.yul\":5769:6188   */\n      swap2\n      swap1\n      pop\n      jump\t// out\n        /* \"#utility.yul\":6194:6418   */\n    tag_81:\n        /* \"#utility.yul\":6334:6368   */\n      0x4f6e6c79207468652072696465722063616e20636f6d706c6574652074686520\n        /* \"#utility.yul\":6330:6331   */\n      0x00\n        /* \"#utility.yul\":6322:6328   */\n      dup3\n        /* \"#utility.yul\":6318:6332   */\n      add\n        /* \"#utility.yul\":6311:6369   */\n      mstore\n        /* \"#utility.yul\":6403:6410   */\n      0x726964652e000000000000000000000000000000000000000000000000000000\n        /* \"#utility.yul\":6398:6400   */\n      0x20\n        /* \"#utility.yul\":6390:6396   */\n      dup3\n        /* \"#utility.yul\":6386:6401   */\n      add\n        /* \"#utility.yul\":6379:6411   */\n      mstore\n        /* \"#utility.yul\":6194:6418   */\n      pop\n      jump\t// out\n        /* \"#utility.yul\":6424:6790   */\n    tag_82:\n        /* \"#utility.yul\":6566:6569   */\n      0x00\n        /* \"#utility.yul\":6587:6654   */\n      tag_136\n        /* \"#utility.yul\":6651:6653   */\n      0x25\n        /* \"#utility.yul\":6646:6649   */\n      dup4\n        /* \"#utility.yul\":6587:6654   */\n      tag_72\n      jump\t// in\n    tag_136:\n        /* \"#utility.yul\":6580:6654   */\n      swap2\n      pop\n        /* \"#utility.yul\":6663:6756   */\n      tag_137\n        /* \"#utility.yul\":6752:6755   */\n      dup3\n        /* \"#utility.yul\":6663:6756   */\n      tag_81\n      jump\t// in\n    tag_137:\n        /* \"#utility.yul\":6781:6783   */\n      0x40\n        /* \"#utility.yul\":6776:6779   */\n      dup3\n        /* \"#utility.yul\":6772:6784   */\n      add\n        /* \"#utility.yul\":6765:6784   */\n      swap1\n      pop\n        /* \"#utility.yul\":6424:6790   */\n      swap2\n      swap1\n      pop\n      jump\t// out\n        /* \"#utility.yul\":6796:7215   */\n    tag_56:\n        /* \"#utility.yul\":6962:6966   */\n      0x00\n        /* \"#utility.yul\":7000:7002   */\n      0x20\n        /* \"#utility.yul\":6989:6998   */\n      dup3\n        /* \"#utility.yul\":6985:7003   */\n      add\n        /* \"#utility.yul\":6977:7003   */\n      swap1\n      pop\n        /* \"#utility.yul\":7049:7058   */\n      dup2\n        /* \"#utility.yul\":7043:7047   */\n      dup2\n        /* \"#utility.yul\":7039:7059   */\n      sub\n        /* \"#utility.yul\":7035:7036   */\n      0x00\n        /* \"#utility.yul\":7024:7033   */\n      dup4\n        /* \"#utility.yul\":7020:7037   */\n      add\n        /* \"#utility.yul\":7013:7060   */\n      mstore\n        /* \"#utility.yul\":7077:7208   */\n      tag_139\n        /* \"#utility.yul\":7203:7207   */\n      dup2\n        /* \"#utility.yul\":7077:7208   */\n      tag_82\n      jump\t// in\n    tag_139:\n        /* \"#utility.yul\":7069:7208   */\n      swap1\n      pop\n        /* \"#utility.yul\":6796:7215   */\n      swap2\n      swap1\n      pop\n      jump\t// out\n        /* \"#utility.yul\":7221:7403   */\n    tag_83:\n        /* \"#utility.yul\":7361:7395   */\n      0x526964652068617320616c7265616479206265656e20636f6d706c657465642e\n        /* \"#utility.yul\":7357:7358   */\n      0x00\n        /* \"#utility.yul\":7349:7355   */\n      dup3\n        /* \"#utility.yul\":7345:7359   */\n      add\n        /* \"#utility.yul\":7338:7396   */\n      mstore\n        /* \"#utility.yul\":7221:7403   */\n      pop\n      jump\t// out\n        /* \"#utility.yul\":7409:7775   */\n    tag_84:\n        /* \"#utility.yul\":7551:7554   */\n      0x00\n        /* \"#utility.yul\":7572:7639   */\n      tag_142\n        /* \"#utility.yul\":7636:7638   */\n      0x20\n        /* \"#utility.yul\":7631:7634   */\n      dup4\n        /* \"#utility.yul\":7572:7639   */\n      tag_72\n      jump\t// in\n    tag_142:\n        /* \"#utility.yul\":7565:7639   */\n      swap2\n      pop\n        /* \"#utility.yul\":7648:7741   */\n      tag_143\n        /* \"#utility.yul\":7737:7740   */\n      dup3\n        /* \"#utility.yul\":7648:7741   */\n      tag_83\n      jump\t// in\n    tag_143:\n        /* \"#utility.yul\":7766:7768   */\n      0x20\n        /* \"#utility.yul\":7761:7764   */\n      dup3\n        /* \"#utility.yul\":7757:7769   */\n      add\n        /* \"#utility.yul\":7750:7769   */\n      swap1\n      pop\n        /* \"#utility.yul\":7409:7775   */\n      swap2\n      swap1\n      pop\n      jump\t// out\n        /* \"#utility.yul\":7781:8200   */\n    tag_59:\n        /* \"#utility.yul\":7947:7951   */\n      0x00\n        /* \"#utility.yul\":7985:7987   */\n      0x20\n        /* \"#utility.yul\":7974:7983   */\n      dup3\n        /* \"#utility.yul\":7970:7988   */\n      add\n        /* \"#utility.yul\":7962:7988   */\n      swap1\n      pop\n        /* \"#utility.yul\":8034:8043   */\n      dup2\n        /* \"#utility.yul\":8028:8032   */\n      dup2\n        /* \"#utility.yul\":8024:8044   */\n      sub\n        /* \"#utility.yul\":8020:8021   */\n      0x00\n        /* \"#utility.yul\":8009:8018   */\n      dup4\n        /* \"#utility.yul\":8005:8022   */\n      add\n        /* \"#utility.yul\":7998:8045   */\n      mstore\n        /* \"#utility.yul\":8062:8193   */\n      tag_145\n        /* \"#utility.yul\":8188:8192   */\n      dup2\n        /* \"#utility.yul\":8062:8193   */\n      tag_84\n      jump\t// in\n    tag_145:\n        /* \"#utility.yul\":8054:8193   */\n      swap1\n      pop\n        /* \"#utility.yul\":7781:8200   */\n      swap2\n      swap1\n      pop\n      jump\t// out\n\n    auxdata: 0xa2646970667358221220594ad6fee8f0790443bf96ad136319306aa7981c0c694b172efe9bf078c7854a64736f6c634300081a0033\n}\n",
				"bytecode": {
					"linkReferences": {},
					"object": "608060405234801561000f575f80fd5b50604051610bfb380380610bfb83398181016040528101906100319190610168565b335f806101000a81548173ffffffffffffffffffffffffffffffffffffffff021916908373ffffffffffffffffffffffffffffffffffffffff1602179055508160015f6101000a81548173ffffffffffffffffffffffffffffffffffffffff021916908373ffffffffffffffffffffffffffffffffffffffff160217905550806002819055505f60035f6101000a81548160ff02191690831515021790555050506101a6565b5f80fd5b5f73ffffffffffffffffffffffffffffffffffffffff82169050919050565b5f610104826100db565b9050919050565b610114816100fa565b811461011e575f80fd5b50565b5f8151905061012f8161010b565b92915050565b5f819050919050565b61014781610135565b8114610151575f80fd5b50565b5f815190506101628161013e565b92915050565b5f806040838503121561017e5761017d6100d7565b5b5f61018b85828601610121565b925050602061019c85828601610154565b9150509250929050565b610a48806101b35f395ff3fe60806040526004361061006f575f3560e01c80636ecc5d621161004d5780636ecc5d62146100f15780637abb264e1461011b5780637ec8a33214610125578063e6b547b71461013b5761006f565b8063185791df1461007357806353c0a0061461009d5780636c4d46bd146100c7575b5f80fd5b34801561007e575f80fd5b50610087610151565b604051610094919061061d565b60405180910390f35b3480156100a8575f80fd5b506100b1610157565b6040516100be9190610675565b60405180910390f35b3480156100d2575f80fd5b506100db61017a565b6040516100e891906106a8565b60405180910390f35b3480156100fc575f80fd5b5061010561018c565b60405161011291906106e1565b60405180910390f35b6101236101b1565b005b348015610130575f80fd5b50610139610284565b005b348015610146575f80fd5b5061014f6103ff565b005b60025481565b5f8054906101000a900473ffffffffffffffffffffffffffffffffffffffff1681565b60035f9054906101000a900460ff1681565b60015f9054906101000a900473ffffffffffffffffffffffffffffffffffffffff1681565b5f8054906101000a900473ffffffffffffffffffffffffffffffffffffffff1673ffffffffffffffffffffffffffffffffffffffff163373ffffffffffffffffffffffffffffffffffffffff161461023e576040517f08c379a00000000000000000000000000000000000000000000000000000000081526004016102359061077a565b60405180910390fd5b6002543414610282576040517f08c379a0000000000000000000000000000000000000000000000000000000008152600401610279906107e2565b60405180910390fd5b565b5f8054906101000a900473ffffffffffffffffffffffffffffffffffffffff1673ffffffffffffffffffffffffffffffffffffffff163373ffffffffffffffffffffffffffffffffffffffff1614610311576040517f08c379a000000000000000000000000000000000000000000000000000000000815260040161030890610870565b60405180910390fd5b600254471015610356576040517f08c379a000000000000000000000000000000000000000000000000000000000815260040161034d906108fe565b60405180910390fd5b60015f9054906101000a900473ffffffffffffffffffffffffffffffffffffffff1673ffffffffffffffffffffffffffffffffffffffff165f8054906101000a900473ffffffffffffffffffffffffffffffffffffffff1673ffffffffffffffffffffffffffffffffffffffff167ff9286e64f922f5c9d05a2b4d2be293477bb82b620912be5a10311b7b80d4e0196002546040516103f5919061061d565b60405180910390a3565b5f8054906101000a900473ffffffffffffffffffffffffffffffffffffffff1673ffffffffffffffffffffffffffffffffffffffff163373ffffffffffffffffffffffffffffffffffffffff161461048c576040517f08c379a00000000000000000000000000000000000000000000000000000000081526004016104839061098c565b60405180910390fd5b60035f9054906101000a900460ff16156104db576040517f08c379a00000000000000000000000000000000000000000000000000000000081526004016104d2906109f4565b60405180910390fd5b600160035f6101000a81548160ff02191690831515021790555060015f9054906101000a900473ffffffffffffffffffffffffffffffffffffffff1673ffffffffffffffffffffffffffffffffffffffff166108fc60025490811502906040515f60405180830381858888f1935050505015801561055b573d5f803e3d5ffd5b5060015f9054906101000a900473ffffffffffffffffffffffffffffffffffffffff1673ffffffffffffffffffffffffffffffffffffffff165f8054906101000a900473ffffffffffffffffffffffffffffffffffffffff1673ffffffffffffffffffffffffffffffffffffffff167f79228b1a6bc0e0ab214713a868da328ccf24a9a88d9822f4cdd568706c2cfa806002546040516105fb919061061d565b60405180910390a3565b5f819050919050565b61061781610605565b82525050565b5f6020820190506106305f83018461060e565b92915050565b5f73ffffffffffffffffffffffffffffffffffffffff82169050919050565b5f61065f82610636565b9050919050565b61066f81610655565b82525050565b5f6020820190506106885f830184610666565b92915050565b5f8115159050919050565b6106a28161068e565b82525050565b5f6020820190506106bb5f830184610699565b92915050565b5f6106cb82610636565b9050919050565b6106db816106c1565b82525050565b5f6020820190506106f45f8301846106d2565b92915050565b5f82825260208201905092915050565b7f4f6e6c79207468652072696465722063616e2066756e642074686520726964655f8201527f2e00000000000000000000000000000000000000000000000000000000000000602082015250565b5f6107646021836106fa565b915061076f8261070a565b604082019050919050565b5f6020820190508181035f83015261079181610758565b9050919050565b7f496e636f727265637420616d6f756e742073656e742e000000000000000000005f82015250565b5f6107cc6016836106fa565b91506107d782610798565b602082019050919050565b5f6020820190508181035f8301526107f9816107c0565b9050919050565b7f4f6e6c79207468652072696465722063616e20737461727420746865207269645f8201527f652e000000000000000000000000000000000000000000000000000000000000602082015250565b5f61085a6022836106fa565b915061086582610800565b604082019050919050565b5f6020820190508181035f8301526108878161084e565b9050919050565b7f496e73756666696369656e742062616c616e636520666f7220746865207269645f8201527f652e000000000000000000000000000000000000000000000000000000000000602082015250565b5f6108e86022836106fa565b91506108f38261088e565b604082019050919050565b5f6020820190508181035f830152610915816108dc565b9050919050565b7f4f6e6c79207468652072696465722063616e20636f6d706c65746520746865205f8201527f726964652e000000000000000000000000000000000000000000000000000000602082015250565b5f6109766025836106fa565b91506109818261091c565b604082019050919050565b5f6020820190508181035f8301526109a38161096a565b9050919050565b7f526964652068617320616c7265616479206265656e20636f6d706c657465642e5f82015250565b5f6109de6020836106fa565b91506109e9826109aa565b602082019050919050565b5f6020820190508181035f830152610a0b816109d2565b905091905056fea2646970667358221220594ad6fee8f0790443bf96ad136319306aa7981c0c694b172efe9bf078c7854a64736f6c634300081a0033",
					"opcodes": "PUSH1 0x80 PUSH1 0x40 MSTORE CALLVALUE DUP1 ISZERO PUSH2 0xF JUMPI PUSH0 DUP1 REVERT JUMPDEST POP PUSH1 0x40 MLOAD PUSH2 0xBFB CODESIZE SUB DUP1 PUSH2 0xBFB DUP4 CODECOPY DUP2 DUP2 ADD PUSH1 0x40 MSTORE DUP2 ADD SWAP1 PUSH2 0x31 SWAP2 SWAP1 PUSH2 0x168 JUMP JUMPDEST CALLER PUSH0 DUP1 PUSH2 0x100 EXP DUP2 SLOAD DUP2 PUSH20 0xFFFFFFFFFFFFFFFFFFFFFFFFFFFFFFFFFFFFFFFF MUL NOT AND SWAP1 DUP4 PUSH20 0xFFFFFFFFFFFFFFFFFFFFFFFFFFFFFFFFFFFFFFFF AND MUL OR SWAP1 SSTORE POP DUP2 PUSH1 0x1 PUSH0 PUSH2 0x100 EXP DUP2 SLOAD DUP2 PUSH20 0xFFFFFFFFFFFFFFFFFFFFFFFFFFFFFFFFFFFFFFFF MUL NOT AND SWAP1 DUP4 PUSH20 0xFFFFFFFFFFFFFFFFFFFFFFFFFFFFFFFFFFFFFFFF AND MUL OR SWAP1 SSTORE POP DUP1 PUSH1 0x2 DUP2 SWAP1 SSTORE POP PUSH0 PUSH1 0x3 PUSH0 PUSH2 0x100 EXP DUP2 SLOAD DUP2 PUSH1 0xFF MUL NOT AND SWAP1 DUP4 ISZERO ISZERO MUL OR SWAP1 SSTORE POP POP POP PUSH2 0x1A6 JUMP JUMPDEST PUSH0 DUP1 REVERT JUMPDEST PUSH0 PUSH20 0xFFFFFFFFFFFFFFFFFFFFFFFFFFFFFFFFFFFFFFFF DUP3 AND SWAP1 POP SWAP2 SWAP1 POP JUMP JUMPDEST PUSH0 PUSH2 0x104 DUP3 PUSH2 0xDB JUMP JUMPDEST SWAP1 POP SWAP2 SWAP1 POP JUMP JUMPDEST PUSH2 0x114 DUP2 PUSH2 0xFA JUMP JUMPDEST DUP2 EQ PUSH2 0x11E JUMPI PUSH0 DUP1 REVERT JUMPDEST POP JUMP JUMPDEST PUSH0 DUP2 MLOAD SWAP1 POP PUSH2 0x12F DUP2 PUSH2 0x10B JUMP JUMPDEST SWAP3 SWAP2 POP POP JUMP JUMPDEST PUSH0 DUP2 SWAP1 POP SWAP2 SWAP1 POP JUMP JUMPDEST PUSH2 0x147 DUP2 PUSH2 0x135 JUMP JUMPDEST DUP2 EQ PUSH2 0x151 JUMPI PUSH0 DUP1 REVERT JUMPDEST POP JUMP JUMPDEST PUSH0 DUP2 MLOAD SWAP1 POP PUSH2 0x162 DUP2 PUSH2 0x13E JUMP JUMPDEST SWAP3 SWAP2 POP POP JUMP JUMPDEST PUSH0 DUP1 PUSH1 0x40 DUP4 DUP6 SUB SLT ISZERO PUSH2 0x17E JUMPI PUSH2 0x17D PUSH2 0xD7 JUMP JUMPDEST JUMPDEST PUSH0 PUSH2 0x18B DUP6 DUP3 DUP7 ADD PUSH2 0x121 JUMP JUMPDEST SWAP3 POP POP PUSH1 0x20 PUSH2 0x19C DUP6 DUP3 DUP7 ADD PUSH2 0x154 JUMP JUMPDEST SWAP2 POP POP SWAP3 POP SWAP3 SWAP1 POP JUMP JUMPDEST PUSH2 0xA48 DUP1 PUSH2 0x1B3 PUSH0 CODECOPY PUSH0 RETURN INVALID PUSH1 0x80 PUSH1 0x40 MSTORE PUSH1 0x4 CALLDATASIZE LT PUSH2 0x6F JUMPI PUSH0 CALLDATALOAD PUSH1 0xE0 SHR DUP1 PUSH4 0x6ECC5D62 GT PUSH2 0x4D JUMPI DUP1 PUSH4 0x6ECC5D62 EQ PUSH2 0xF1 JUMPI DUP1 PUSH4 0x7ABB264E EQ PUSH2 0x11B JUMPI DUP1 PUSH4 0x7EC8A332 EQ PUSH2 0x125 JUMPI DUP1 PUSH4 0xE6B547B7 EQ PUSH2 0x13B JUMPI PUSH2 0x6F JUMP JUMPDEST DUP1 PUSH4 0x185791DF EQ PUSH2 0x73 JUMPI DUP1 PUSH4 0x53C0A006 EQ PUSH2 0x9D JUMPI DUP1 PUSH4 0x6C4D46BD EQ PUSH2 0xC7 JUMPI JUMPDEST PUSH0 DUP1 REVERT JUMPDEST CALLVALUE DUP1 ISZERO PUSH2 0x7E JUMPI PUSH0 DUP1 REVERT JUMPDEST POP PUSH2 0x87 PUSH2 0x151 JUMP JUMPDEST PUSH1 0x40 MLOAD PUSH2 0x94 SWAP2 SWAP1 PUSH2 0x61D JUMP JUMPDEST PUSH1 0x40 MLOAD DUP1 SWAP2 SUB SWAP1 RETURN JUMPDEST CALLVALUE DUP1 ISZERO PUSH2 0xA8 JUMPI PUSH0 DUP1 REVERT JUMPDEST POP PUSH2 0xB1 PUSH2 0x157 JUMP JUMPDEST PUSH1 0x40 MLOAD PUSH2 0xBE SWAP2 SWAP1 PUSH2 0x675 JUMP JUMPDEST PUSH1 0x40 MLOAD DUP1 SWAP2 SUB SWAP1 RETURN JUMPDEST CALLVALUE DUP1 ISZERO PUSH2 0xD2 JUMPI PUSH0 DUP1 REVERT JUMPDEST POP PUSH2 0xDB PUSH2 0x17A JUMP JUMPDEST PUSH1 0x40 MLOAD PUSH2 0xE8 SWAP2 SWAP1 PUSH2 0x6A8 JUMP JUMPDEST PUSH1 0x40 MLOAD DUP1 SWAP2 SUB SWAP1 RETURN JUMPDEST CALLVALUE DUP1 ISZERO PUSH2 0xFC JUMPI PUSH0 DUP1 REVERT JUMPDEST POP PUSH2 0x105 PUSH2 0x18C JUMP JUMPDEST PUSH1 0x40 MLOAD PUSH2 0x112 SWAP2 SWAP1 PUSH2 0x6E1 JUMP JUMPDEST PUSH1 0x40 MLOAD DUP1 SWAP2 SUB SWAP1 RETURN JUMPDEST PUSH2 0x123 PUSH2 0x1B1 JUMP JUMPDEST STOP JUMPDEST CALLVALUE DUP1 ISZERO PUSH2 0x130 JUMPI PUSH0 DUP1 REVERT JUMPDEST POP PUSH2 0x139 PUSH2 0x284 JUMP JUMPDEST STOP JUMPDEST CALLVALUE DUP1 ISZERO PUSH2 0x146 JUMPI PUSH0 DUP1 REVERT JUMPDEST POP PUSH2 0x14F PUSH2 0x3FF JUMP JUMPDEST STOP JUMPDEST PUSH1 0x2 SLOAD DUP2 JUMP JUMPDEST PUSH0 DUP1 SLOAD SWAP1 PUSH2 0x100 EXP SWAP1 DIV PUSH20 0xFFFFFFFFFFFFFFFFFFFFFFFFFFFFFFFFFFFFFFFF AND DUP2 JUMP JUMPDEST PUSH1 0x3 PUSH0 SWAP1 SLOAD SWAP1 PUSH2 0x100 EXP SWAP1 DIV PUSH1 0xFF AND DUP2 JUMP JUMPDEST PUSH1 0x1 PUSH0 SWAP1 SLOAD SWAP1 PUSH2 0x100 EXP SWAP1 DIV PUSH20 0xFFFFFFFFFFFFFFFFFFFFFFFFFFFFFFFFFFFFFFFF AND DUP2 JUMP JUMPDEST PUSH0 DUP1 SLOAD SWAP1 PUSH2 0x100 EXP SWAP1 DIV PUSH20 0xFFFFFFFFFFFFFFFFFFFFFFFFFFFFFFFFFFFFFFFF AND PUSH20 0xFFFFFFFFFFFFFFFFFFFFFFFFFFFFFFFFFFFFFFFF AND CALLER PUSH20 0xFFFFFFFFFFFFFFFFFFFFFFFFFFFFFFFFFFFFFFFF AND EQ PUSH2 0x23E JUMPI PUSH1 0x40 MLOAD PUSH32 0x8C379A000000000000000000000000000000000000000000000000000000000 DUP2 MSTORE PUSH1 0x4 ADD PUSH2 0x235 SWAP1 PUSH2 0x77A JUMP JUMPDEST PUSH1 0x40 MLOAD DUP1 SWAP2 SUB SWAP1 REVERT JUMPDEST PUSH1 0x2 SLOAD CALLVALUE EQ PUSH2 0x282 JUMPI PUSH1 0x40 MLOAD PUSH32 0x8C379A000000000000000000000000000000000000000000000000000000000 DUP2 MSTORE PUSH1 0x4 ADD PUSH2 0x279 SWAP1 PUSH2 0x7E2 JUMP JUMPDEST PUSH1 0x40 MLOAD DUP1 SWAP2 SUB SWAP1 REVERT JUMPDEST JUMP JUMPDEST PUSH0 DUP1 SLOAD SWAP1 PUSH2 0x100 EXP SWAP1 DIV PUSH20 0xFFFFFFFFFFFFFFFFFFFFFFFFFFFFFFFFFFFFFFFF AND PUSH20 0xFFFFFFFFFFFFFFFFFFFFFFFFFFFFFFFFFFFFFFFF AND CALLER PUSH20 0xFFFFFFFFFFFFFFFFFFFFFFFFFFFFFFFFFFFFFFFF AND EQ PUSH2 0x311 JUMPI PUSH1 0x40 MLOAD PUSH32 0x8C379A000000000000000000000000000000000000000000000000000000000 DUP2 MSTORE PUSH1 0x4 ADD PUSH2 0x308 SWAP1 PUSH2 0x870 JUMP JUMPDEST PUSH1 0x40 MLOAD DUP1 SWAP2 SUB SWAP1 REVERT JUMPDEST PUSH1 0x2 SLOAD SELFBALANCE LT ISZERO PUSH2 0x356 JUMPI PUSH1 0x40 MLOAD PUSH32 0x8C379A000000000000000000000000000000000000000000000000000000000 DUP2 MSTORE PUSH1 0x4 ADD PUSH2 0x34D SWAP1 PUSH2 0x8FE JUMP JUMPDEST PUSH1 0x40 MLOAD DUP1 SWAP2 SUB SWAP1 REVERT JUMPDEST PUSH1 0x1 PUSH0 SWAP1 SLOAD SWAP1 PUSH2 0x100 EXP SWAP1 DIV PUSH20 0xFFFFFFFFFFFFFFFFFFFFFFFFFFFFFFFFFFFFFFFF AND PUSH20 0xFFFFFFFFFFFFFFFFFFFFFFFFFFFFFFFFFFFFFFFF AND PUSH0 DUP1 SLOAD SWAP1 PUSH2 0x100 EXP SWAP1 DIV PUSH20 0xFFFFFFFFFFFFFFFFFFFFFFFFFFFFFFFFFFFFFFFF AND PUSH20 0xFFFFFFFFFFFFFFFFFFFFFFFFFFFFFFFFFFFFFFFF AND PUSH32 0xF9286E64F922F5C9D05A2B4D2BE293477BB82B620912BE5A10311B7B80D4E019 PUSH1 0x2 SLOAD PUSH1 0x40 MLOAD PUSH2 0x3F5 SWAP2 SWAP1 PUSH2 0x61D JUMP JUMPDEST PUSH1 0x40 MLOAD DUP1 SWAP2 SUB SWAP1 LOG3 JUMP JUMPDEST PUSH0 DUP1 SLOAD SWAP1 PUSH2 0x100 EXP SWAP1 DIV PUSH20 0xFFFFFFFFFFFFFFFFFFFFFFFFFFFFFFFFFFFFFFFF AND PUSH20 0xFFFFFFFFFFFFFFFFFFFFFFFFFFFFFFFFFFFFFFFF AND CALLER PUSH20 0xFFFFFFFFFFFFFFFFFFFFFFFFFFFFFFFFFFFFFFFF AND EQ PUSH2 0x48C JUMPI PUSH1 0x40 MLOAD PUSH32 0x8C379A000000000000000000000000000000000000000000000000000000000 DUP2 MSTORE PUSH1 0x4 ADD PUSH2 0x483 SWAP1 PUSH2 0x98C JUMP JUMPDEST PUSH1 0x40 MLOAD DUP1 SWAP2 SUB SWAP1 REVERT JUMPDEST PUSH1 0x3 PUSH0 SWAP1 SLOAD SWAP1 PUSH2 0x100 EXP SWAP1 DIV PUSH1 0xFF AND ISZERO PUSH2 0x4DB JUMPI PUSH1 0x40 MLOAD PUSH32 0x8C379A000000000000000000000000000000000000000000000000000000000 DUP2 MSTORE PUSH1 0x4 ADD PUSH2 0x4D2 SWAP1 PUSH2 0x9F4 JUMP JUMPDEST PUSH1 0x40 MLOAD DUP1 SWAP2 SUB SWAP1 REVERT JUMPDEST PUSH1 0x1 PUSH1 0x3 PUSH0 PUSH2 0x100 EXP DUP2 SLOAD DUP2 PUSH1 0xFF MUL NOT AND SWAP1 DUP4 ISZERO ISZERO MUL OR SWAP1 SSTORE POP PUSH1 0x1 PUSH0 SWAP1 SLOAD SWAP1 PUSH2 0x100 EXP SWAP1 DIV PUSH20 0xFFFFFFFFFFFFFFFFFFFFFFFFFFFFFFFFFFFFFFFF AND PUSH20 0xFFFFFFFFFFFFFFFFFFFFFFFFFFFFFFFFFFFFFFFF AND PUSH2 0x8FC PUSH1 0x2 SLOAD SWAP1 DUP2 ISZERO MUL SWAP1 PUSH1 0x40 MLOAD PUSH0 PUSH1 0x40 MLOAD DUP1 DUP4 SUB DUP2 DUP6 DUP9 DUP9 CALL SWAP4 POP POP POP POP ISZERO DUP1 ISZERO PUSH2 0x55B JUMPI RETURNDATASIZE PUSH0 DUP1 RETURNDATACOPY RETURNDATASIZE PUSH0 REVERT JUMPDEST POP PUSH1 0x1 PUSH0 SWAP1 SLOAD SWAP1 PUSH2 0x100 EXP SWAP1 DIV PUSH20 0xFFFFFFFFFFFFFFFFFFFFFFFFFFFFFFFFFFFFFFFF AND PUSH20 0xFFFFFFFFFFFFFFFFFFFFFFFFFFFFFFFFFFFFFFFF AND PUSH0 DUP1 SLOAD SWAP1 PUSH2 0x100 EXP SWAP1 DIV PUSH20 0xFFFFFFFFFFFFFFFFFFFFFFFFFFFFFFFFFFFFFFFF AND PUSH20 0xFFFFFFFFFFFFFFFFFFFFFFFFFFFFFFFFFFFFFFFF AND PUSH32 0x79228B1A6BC0E0AB214713A868DA328CCF24A9A88D9822F4CDD568706C2CFA80 PUSH1 0x2 SLOAD PUSH1 0x40 MLOAD PUSH2 0x5FB SWAP2 SWAP1 PUSH2 0x61D JUMP JUMPDEST PUSH1 0x40 MLOAD DUP1 SWAP2 SUB SWAP1 LOG3 JUMP JUMPDEST PUSH0 DUP2 SWAP1 POP SWAP2 SWAP1 POP JUMP JUMPDEST PUSH2 0x617 DUP2 PUSH2 0x605 JUMP JUMPDEST DUP3 MSTORE POP POP JUMP JUMPDEST PUSH0 PUSH1 0x20 DUP3 ADD SWAP1 POP PUSH2 0x630 PUSH0 DUP4 ADD DUP5 PUSH2 0x60E JUMP JUMPDEST SWAP3 SWAP2 POP POP JUMP JUMPDEST PUSH0 PUSH20 0xFFFFFFFFFFFFFFFFFFFFFFFFFFFFFFFFFFFFFFFF DUP3 AND SWAP1 POP SWAP2 SWAP1 POP JUMP JUMPDEST PUSH0 PUSH2 0x65F DUP3 PUSH2 0x636 JUMP JUMPDEST SWAP1 POP SWAP2 SWAP1 POP JUMP JUMPDEST PUSH2 0x66F DUP2 PUSH2 0x655 JUMP JUMPDEST DUP3 MSTORE POP POP JUMP JUMPDEST PUSH0 PUSH1 0x20 DUP3 ADD SWAP1 POP PUSH2 0x688 PUSH0 DUP4 ADD DUP5 PUSH2 0x666 JUMP JUMPDEST SWAP3 SWAP2 POP POP JUMP JUMPDEST PUSH0 DUP2 ISZERO ISZERO SWAP1 POP SWAP2 SWAP1 POP JUMP JUMPDEST PUSH2 0x6A2 DUP2 PUSH2 0x68E JUMP JUMPDEST DUP3 MSTORE POP POP JUMP JUMPDEST PUSH0 PUSH1 0x20 DUP3 ADD SWAP1 POP PUSH2 0x6BB PUSH0 DUP4 ADD DUP5 PUSH2 0x699 JUMP JUMPDEST SWAP3 SWAP2 POP POP JUMP JUMPDEST PUSH0 PUSH2 0x6CB DUP3 PUSH2 0x636 JUMP JUMPDEST SWAP1 POP SWAP2 SWAP1 POP JUMP JUMPDEST PUSH2 0x6DB DUP2 PUSH2 0x6C1 JUMP JUMPDEST DUP3 MSTORE POP POP JUMP JUMPDEST PUSH0 PUSH1 0x20 DUP3 ADD SWAP1 POP PUSH2 0x6F4 PUSH0 DUP4 ADD DUP5 PUSH2 0x6D2 JUMP JUMPDEST SWAP3 SWAP2 POP POP JUMP JUMPDEST PUSH0 DUP3 DUP3 MSTORE PUSH1 0x20 DUP3 ADD SWAP1 POP SWAP3 SWAP2 POP POP JUMP JUMPDEST PUSH32 0x4F6E6C79207468652072696465722063616E2066756E64207468652072696465 PUSH0 DUP3 ADD MSTORE PUSH32 0x2E00000000000000000000000000000000000000000000000000000000000000 PUSH1 0x20 DUP3 ADD MSTORE POP JUMP JUMPDEST PUSH0 PUSH2 0x764 PUSH1 0x21 DUP4 PUSH2 0x6FA JUMP JUMPDEST SWAP2 POP PUSH2 0x76F DUP3 PUSH2 0x70A JUMP JUMPDEST PUSH1 0x40 DUP3 ADD SWAP1 POP SWAP2 SWAP1 POP JUMP JUMPDEST PUSH0 PUSH1 0x20 DUP3 ADD SWAP1 POP DUP2 DUP2 SUB PUSH0 DUP4 ADD MSTORE PUSH2 0x791 DUP2 PUSH2 0x758 JUMP JUMPDEST SWAP1 POP SWAP2 SWAP1 POP JUMP JUMPDEST PUSH32 0x496E636F727265637420616D6F756E742073656E742E00000000000000000000 PUSH0 DUP3 ADD MSTORE POP JUMP JUMPDEST PUSH0 PUSH2 0x7CC PUSH1 0x16 DUP4 PUSH2 0x6FA JUMP JUMPDEST SWAP2 POP PUSH2 0x7D7 DUP3 PUSH2 0x798 JUMP JUMPDEST PUSH1 0x20 DUP3 ADD SWAP1 POP SWAP2 SWAP1 POP JUMP JUMPDEST PUSH0 PUSH1 0x20 DUP3 ADD SWAP1 POP DUP2 DUP2 SUB PUSH0 DUP4 ADD MSTORE PUSH2 0x7F9 DUP2 PUSH2 0x7C0 JUMP JUMPDEST SWAP1 POP SWAP2 SWAP1 POP JUMP JUMPDEST PUSH32 0x4F6E6C79207468652072696465722063616E2073746172742074686520726964 PUSH0 DUP3 ADD MSTORE PUSH32 0x652E000000000000000000000000000000000000000000000000000000000000 PUSH1 0x20 DUP3 ADD MSTORE POP JUMP JUMPDEST PUSH0 PUSH2 0x85A PUSH1 0x22 DUP4 PUSH2 0x6FA JUMP JUMPDEST SWAP2 POP PUSH2 0x865 DUP3 PUSH2 0x800 JUMP JUMPDEST PUSH1 0x40 DUP3 ADD SWAP1 POP SWAP2 SWAP1 POP JUMP JUMPDEST PUSH0 PUSH1 0x20 DUP3 ADD SWAP1 POP DUP2 DUP2 SUB PUSH0 DUP4 ADD MSTORE PUSH2 0x887 DUP2 PUSH2 0x84E JUMP JUMPDEST SWAP1 POP SWAP2 SWAP1 POP JUMP JUMPDEST PUSH32 0x496E73756666696369656E742062616C616E636520666F722074686520726964 PUSH0 DUP3 ADD MSTORE PUSH32 0x652E000000000000000000000000000000000000000000000000000000000000 PUSH1 0x20 DUP3 ADD MSTORE POP JUMP JUMPDEST PUSH0 PUSH2 0x8E8 PUSH1 0x22 DUP4 PUSH2 0x6FA JUMP JUMPDEST SWAP2 POP PUSH2 0x8F3 DUP3 PUSH2 0x88E JUMP JUMPDEST PUSH1 0x40 DUP3 ADD SWAP1 POP SWAP2 SWAP1 POP JUMP JUMPDEST PUSH0 PUSH1 0x20 DUP3 ADD SWAP1 POP DUP2 DUP2 SUB PUSH0 DUP4 ADD MSTORE PUSH2 0x915 DUP2 PUSH2 0x8DC JUMP JUMPDEST SWAP1 POP SWAP2 SWAP1 POP JUMP JUMPDEST PUSH32 0x4F6E6C79207468652072696465722063616E20636F6D706C6574652074686520 PUSH0 DUP3 ADD MSTORE PUSH32 0x726964652E000000000000000000000000000000000000000000000000000000 PUSH1 0x20 DUP3 ADD MSTORE POP JUMP JUMPDEST PUSH0 PUSH2 0x976 PUSH1 0x25 DUP4 PUSH2 0x6FA JUMP JUMPDEST SWAP2 POP PUSH2 0x981 DUP3 PUSH2 0x91C JUMP JUMPDEST PUSH1 0x40 DUP3 ADD SWAP1 POP SWAP2 SWAP1 POP JUMP JUMPDEST PUSH0 PUSH1 0x20 DUP3 ADD SWAP1 POP DUP2 DUP2 SUB PUSH0 DUP4 ADD MSTORE PUSH2 0x9A3 DUP2 PUSH2 0x96A JUMP JUMPDEST SWAP1 POP SWAP2 SWAP1 POP JUMP JUMPDEST PUSH32 0x526964652068617320616C7265616479206265656E20636F6D706C657465642E PUSH0 DUP3 ADD MSTORE POP JUMP JUMPDEST PUSH0 PUSH2 0x9DE PUSH1 0x20 DUP4 PUSH2 0x6FA JUMP JUMPDEST SWAP2 POP PUSH2 0x9E9 DUP3 PUSH2 0x9AA JUMP JUMPDEST PUSH1 0x20 DUP3 ADD SWAP1 POP SWAP2 SWAP1 POP JUMP JUMPDEST PUSH0 PUSH1 0x20 DUP3 ADD SWAP1 POP DUP2 DUP2 SUB PUSH0 DUP4 ADD MSTORE PUSH2 0xA0B DUP2 PUSH2 0x9D2 JUMP JUMPDEST SWAP1 POP SWAP2 SWAP1 POP JUMP INVALID LOG2 PUSH5 0x6970667358 0x22 SLT KECCAK256 MSIZE BLOBBASEFEE 0xD6 INVALID 0xE8 CREATE PUSH26 0x443BF96AD136319306AA7981C0C694B172EFE9BF078C7854A64 PUSH20 0x6F6C634300081A00330000000000000000000000 "
				},
				"gasEstimates": {
					"creation": {
						"codeDepositCost": "526400",
						"executionCost": "infinite",
						"totalCost": "infinite"
					},
					"external": {
						"completeRide()": "infinite",
						"driver()": "2508",
						"fundRide()": "4713",
						"rideCompleted()": "2511",
						"rideCost()": "2426",
						"rider()": "2528",
						"startRide()": "12804"
					}
				},
				"methodIdentifiers": {
					"completeRide()": "e6b547b7",
					"driver()": "6ecc5d62",
					"fundRide()": "7abb264e",
					"rideCompleted()": "6c4d46bd",
					"rideCost()": "185791df",
					"rider()": "53c0a006",
					"startRide()": "7ec8a332"
				}
			},
			"storageLayout": {
				"storage": [
					{
						"astId": 3,
						"contract": "contracts/TaxiRide.sol:TaxiRide",
						"label": "rider",
						"offset": 0,
						"slot": "0",
						"type": "t_address"
					},
					{
						"astId": 5,
						"contract": "contracts/TaxiRide.sol:TaxiRide",
						"label": "driver",
						"offset": 0,
						"slot": "1",
						"type": "t_address_payable"
					},
					{
						"astId": 7,
						"contract": "contracts/TaxiRide.sol:TaxiRide",
						"label": "rideCost",
						"offset": 0,
						"slot": "2",
						"type": "t_uint256"
					},
					{
						"astId": 9,
						"contract": "contracts/TaxiRide.sol:TaxiRide",
						"label": "rideCompleted",
						"offset": 0,
						"slot": "3",
						"type": "t_bool"
					}
				],
				"types": {
					"t_address": {
						"encoding": "inplace",
						"label": "address",
						"numberOfBytes": "20"
					},
					"t_address_payable": {
						"encoding": "inplace",
						"label": "address payable",
						"numberOfBytes": "20"
					},
					"t_bool": {
						"encoding": "inplace",
						"label": "bool",
						"numberOfBytes": "1"
					},
					"t_uint256": {
						"encoding": "inplace",
						"label": "uint256",
						"numberOfBytes": "32"
					}
				}
			},
			"userdoc": {
				"kind": "user",
				"methods": {},
				"version": 1
			}
		}
	}
}